{
  "contractName": "airlineAsk",
  "abi": [
    {
      "inputs": [],
      "payable": false,
      "stateMutability": "nonpayable",
      "type": "constructor"
    },
    {
      "constant": false,
      "inputs": [
        {
          "name": "user",
          "type": "address"
        },
        {
          "name": "balance",
          "type": "uint256"
        }
      ],
      "name": "register",
      "outputs": [],
      "payable": true,
      "stateMutability": "payable",
      "type": "function"
    },
    {
      "constant": false,
      "inputs": [
        {
          "name": "user",
          "type": "address"
        }
      ],
      "name": "unregister",
      "outputs": [],
      "payable": false,
      "stateMutability": "nonpayable",
      "type": "function"
    },
    {
      "constant": false,
      "inputs": [
        {
          "name": "requestNum",
          "type": "uint256"
        }
      ],
      "name": "createRequest",
      "outputs": [],
      "payable": false,
      "stateMutability": "nonpayable",
      "type": "function"
    },
    {
      "constant": false,
      "inputs": [
        {
          "name": "requestNum",
          "type": "uint256"
        },
        {
          "name": "status",
          "type": "int256"
        }
      ],
      "name": "updateRequest",
      "outputs": [],
      "payable": false,
      "stateMutability": "nonpayable",
      "type": "function"
    },
    {
      "constant": false,
      "inputs": [
        {
          "name": "a",
          "type": "address"
        },
        {
          "name": "b",
          "type": "address"
        },
        {
          "name": "cost",
          "type": "uint256"
        }
      ],
      "name": "settlePayment",
      "outputs": [],
      "payable": false,
      "stateMutability": "nonpayable",
      "type": "function"
    },
    {
      "constant": true,
      "inputs": [
        {
          "name": "user",
          "type": "address"
        }
      ],
      "name": "checkBalance",
      "outputs": [
        {
          "name": "",
          "type": "uint256"
        }
      ],
      "payable": false,
      "stateMutability": "view",
      "type": "function"
    },
    {
      "constant": true,
      "inputs": [
        {
          "name": "requestNum",
          "type": "uint256"
        }
      ],
      "name": "getRequestStatus",
      "outputs": [
        {
          "name": "",
          "type": "int256"
        }
      ],
      "payable": false,
      "stateMutability": "view",
      "type": "function"
    }
  ],
  "bytecode": "0x608060405234801561001057600080fd5b5060008060003373ffffffffffffffffffffffffffffffffffffffff1673ffffffffffffffffffffffffffffffffffffffff168152602001908152602001600020819055506001600260003373ffffffffffffffffffffffffffffffffffffffff1673ffffffffffffffffffffffffffffffffffffffff16815260200190815260200160002060006101000a81548160ff02191690831515021790555061066c806100bc6000396000f3fe608060405260043610610083576000357c0100000000000000000000000000000000000000000000000000000000900463ffffffff168063247dedd9146100885780632ec2c246146100cd578063454bd24e1461011e5780635f515226146101995780636d705ebb146101fe578063d8a4676f1461024c578063da7620a31461029b575b600080fd5b34801561009457600080fd5b506100cb600480360360408110156100ab57600080fd5b8101908080359060200190929190803590602001909291905050506102d6565b005b3480156100d957600080fd5b5061011c600480360360208110156100f057600080fd5b81019080803573ffffffffffffffffffffffffffffffffffffffff1690602001909291905050506102f2565b005b34801561012a57600080fd5b506101976004803603606081101561014157600080fd5b81019080803573ffffffffffffffffffffffffffffffffffffffff169060200190929190803573ffffffffffffffffffffffffffffffffffffffff1690602001909291908035906020019092919050505061038f565b005b3480156101a557600080fd5b506101e8600480360360208110156101bc57600080fd5b81019080803573ffffffffffffffffffffffffffffffffffffffff169060200190929190505050610520565b6040518082815260200191505060405180910390f35b61024a6004803603604081101561021457600080fd5b81019080803573ffffffffffffffffffffffffffffffffffffffff16906020019092919080359060200190929190505050610568565b005b34801561025857600080fd5b506102856004803603602081101561026f57600080fd5b8101908080359060200190929190505050610607565b6040518082815260200191505060405180910390f35b3480156102a757600080fd5b506102d4600480360360208110156102be57600080fd5b8101908080359060200190929190505050610624565b005b8060016000848152602001908152602001600020819055505050565b6000600260008373ffffffffffffffffffffffffffffffffffffffff1673ffffffffffffffffffffffffffffffffffffffff16815260200190815260200160002060006101000a81548160ff0219169083151502179055506000808273ffffffffffffffffffffffffffffffffffffffff1673ffffffffffffffffffffffffffffffffffffffff1681526020019081526020016000206000905550565b600260008473ffffffffffffffffffffffffffffffffffffffff1673ffffffffffffffffffffffffffffffffffffffff16815260200190815260200160002060009054906101000a900460ff1615156103e457fe5b600260008373ffffffffffffffffffffffffffffffffffffffff1673ffffffffffffffffffffffffffffffffffffffff16815260200190815260200160002060009054906101000a900460ff16151561043957fe5b806000808573ffffffffffffffffffffffffffffffffffffffff1673ffffffffffffffffffffffffffffffffffffffff168152602001908152602001600020541015151561048357fe5b806000808573ffffffffffffffffffffffffffffffffffffffff1673ffffffffffffffffffffffffffffffffffffffff16815260200190815260200160002060008282540392505081905550806000808473ffffffffffffffffffffffffffffffffffffffff1673ffffffffffffffffffffffffffffffffffffffff16815260200190815260200160002060008282540192505081905550505050565b60008060008373ffffffffffffffffffffffffffffffffffffffff1673ffffffffffffffffffffffffffffffffffffffff168152602001908152602001600020549050919050565b806000808473ffffffffffffffffffffffffffffffffffffffff1673ffffffffffffffffffffffffffffffffffffffff168152602001908152602001600020819055506001600260008473ffffffffffffffffffffffffffffffffffffffff1673ffffffffffffffffffffffffffffffffffffffff16815260200190815260200160002060006101000a81548160ff0219169083151502179055505050565b600060016000838152602001908152602001600020549050919050565b600060016000838152602001908152602001600020819055505056fea165627a7a723058205cd610eb51313212e02a363d005e8683088510da129a4c558e69ce1ec37a34960029",
  "source": "pragma solidity ^0.5.0;\n\ncontract airlineAsk {\n    \n    /*** State variables ***/\n    \n    // Balance for each user/airline\n    mapping (address => uint) private balances;\n    // Mapping status codes to request numbers\n    /* \n     * Status codes:\n     * -1: denied\n     * 0: unapproved\n     * 1: pending approval\n     * 2: approved \n     */\n    mapping (uint => int) private requests;\n    // Is user registered?\n    mapping (address => bool) private registered;\n\n    /*** Constructor ***/\n\n    constructor() public {\n        balances[msg.sender] = 0;\n        registered[msg.sender] = true;\n    }\n    \n    /*** Functions ***/\n    \n    /* 1. Register 2. Request 3. Response 4. SettlePayment 5. Unregister 6. BalanceDetails (public - more for debugging purposes) */\n    \n    function register(address user, uint balance) payable public {\n        balances[user] = balance;\n        registered[user] = true;\n    }\n    \n    function unregister(address user) public {\n        registered[user] = false;\n        delete balances[user];\n    }\n    \n    // User initiates a request\n    function createRequest(uint requestNum) public {\n        requests[requestNum] = 0;\n    }\n    \n    // Either airline A/B approves (airline a sets req to 1, airline b req to 2) or denies (either airline sets to -1)\n    function updateRequest(uint requestNum, int status) public {\n        requests[requestNum] = status;\n    }\n    \n    // Payment between airline/user or airline/airline.\n    // a pays b\n    function settlePayment(address a, address b, uint cost) public {\n        assert(registered[a]);\n        assert(registered[b]);\n        assert(balances[a] >= cost);\n        \n        balances[a] -= cost;\n        balances[b] += cost;\n    }\n    \n    function checkBalance(address user) public view returns (uint) {\n        return balances[user];\n    }\n    \n    function getRequestStatus(uint requestNum) public view returns (int) {\n        return requests[requestNum];\n    }\n}",
  "sourcePath": "/home/tj/Desktop/410/410-project2/part3/contracts/airlineAsk.sol",
  "compiler": {
    "name": "solc",
    "version": "0.5.0+commit.1d4f565a.Emscripten.clang"
  },
  "schemaVersion": "3.0.2",
  "updatedAt": "2019-05-06T13:54:21.228Z",
  "devdoc": {
    "methods": {}
  },
  "userdoc": {
    "methods": {
      "constructor": "* Constructor **",
      "register(address,uint256)": {
        "notice": "* Functions **"
      }
    }
  }
}